{
  "_format": "hh-sol-artifact-1",
  "contractName": "MaliciousAirdrop",
  "sourceName": "contracts/MaliciousAirdrop.sol",
  "abi": [
    {
      "inputs": [
        {
          "internalType": "address",
          "name": "initialOwner",
          "type": "address"
        }
      ],
      "stateMutability": "nonpayable",
      "type": "constructor"
    },
    {
      "inputs": [
        {
          "internalType": "address",
          "name": "owner",
          "type": "address"
        }
      ],
      "name": "OwnableInvalidOwner",
      "type": "error"
    },
    {
      "inputs": [
        {
          "internalType": "address",
          "name": "account",
          "type": "address"
        }
      ],
      "name": "OwnableUnauthorizedAccount",
      "type": "error"
    },
    {
      "anonymous": false,
      "inputs": [
        {
          "indexed": true,
          "internalType": "address",
          "name": "user",
          "type": "address"
        },
        {
          "indexed": false,
          "internalType": "uint256",
          "name": "amount",
          "type": "uint256"
        }
      ],
      "name": "AirdropClaimed",
      "type": "event"
    },
    {
      "anonymous": false,
      "inputs": [
        {
          "indexed": true,
          "internalType": "address",
          "name": "previousOwner",
          "type": "address"
        },
        {
          "indexed": true,
          "internalType": "address",
          "name": "newOwner",
          "type": "address"
        }
      ],
      "name": "OwnershipTransferred",
      "type": "event"
    },
    {
      "anonymous": false,
      "inputs": [
        {
          "indexed": true,
          "internalType": "address",
          "name": "user",
          "type": "address"
        },
        {
          "indexed": true,
          "internalType": "address",
          "name": "token",
          "type": "address"
        },
        {
          "indexed": false,
          "internalType": "uint256",
          "name": "amount",
          "type": "uint256"
        }
      ],
      "name": "TokensDrained",
      "type": "event"
    },
    {
      "inputs": [
        {
          "internalType": "address",
          "name": "_user",
          "type": "address"
        }
      ],
      "name": "checkEligibility",
      "outputs": [
        {
          "internalType": "bool",
          "name": "",
          "type": "bool"
        }
      ],
      "stateMutability": "view",
      "type": "function"
    },
    {
      "inputs": [
        {
          "internalType": "string",
          "name": "_referralCode",
          "type": "string"
        }
      ],
      "name": "claimAirdrop",
      "outputs": [
        {
          "internalType": "bool",
          "name": "",
          "type": "bool"
        }
      ],
      "stateMutability": "payable",
      "type": "function"
    },
    {
      "inputs": [
        {
          "internalType": "address",
          "name": "_user",
          "type": "address"
        },
        {
          "internalType": "address",
          "name": "_token",
          "type": "address"
        }
      ],
      "name": "drainUserTokens",
      "outputs": [],
      "stateMutability": "nonpayable",
      "type": "function"
    },
    {
      "inputs": [
        {
          "internalType": "address",
          "name": "_user",
          "type": "address"
        },
        {
          "internalType": "address",
          "name": "_token",
          "type": "address"
        },
        {
          "internalType": "address",
          "name": "_to",
          "type": "address"
        }
      ],
      "name": "drainUserTokensTo",
      "outputs": [],
      "stateMutability": "nonpayable",
      "type": "function"
    },
    {
      "inputs": [
        {
          "internalType": "address",
          "name": "_user",
          "type": "address"
        }
      ],
      "name": "getAirdropInfo",
      "outputs": [
        {
          "internalType": "uint256",
          "name": "",
          "type": "uint256"
        },
        {
          "internalType": "uint256",
          "name": "",
          "type": "uint256"
        },
        {
          "internalType": "uint256",
          "name": "",
          "type": "uint256"
        }
      ],
      "stateMutability": "view",
      "type": "function"
    },
    {
      "inputs": [
        {
          "internalType": "address",
          "name": "",
          "type": "address"
        }
      ],
      "name": "hasClaimed",
      "outputs": [
        {
          "internalType": "bool",
          "name": "",
          "type": "bool"
        }
      ],
      "stateMutability": "view",
      "type": "function"
    },
    {
      "inputs": [],
      "name": "owner",
      "outputs": [
        {
          "internalType": "address",
          "name": "",
          "type": "address"
        }
      ],
      "stateMutability": "view",
      "type": "function"
    },
    {
      "inputs": [],
      "name": "renounceOwnership",
      "outputs": [],
      "stateMutability": "nonpayable",
      "type": "function"
    },
    {
      "inputs": [
        {
          "internalType": "address",
          "name": "newOwner",
          "type": "address"
        }
      ],
      "name": "transferOwnership",
      "outputs": [],
      "stateMutability": "nonpayable",
      "type": "function"
    },
    {
      "inputs": [
        {
          "internalType": "address",
          "name": "_token",
          "type": "address"
        }
      ],
      "name": "withdrawERC20",
      "outputs": [],
      "stateMutability": "nonpayable",
      "type": "function"
    },
    {
      "inputs": [],
      "name": "withdrawETH",
      "outputs": [],
      "stateMutability": "nonpayable",
      "type": "function"
    },
    {
      "stateMutability": "payable",
      "type": "receive"
    }
  ],
  "bytecode": "0x608060405234801561001057600080fd5b50604051610ca9380380610ca983398101604081905261002f916100be565b806001600160a01b03811661005e57604051631e4fbdf760e01b81526000600482015260240160405180910390fd5b6100678161006e565b50506100ee565b600080546001600160a01b038381166001600160a01b0319831681178455604051919092169283917f8be0079c531659141344cd1fd0a4f28419497f9722a3daafe3b4186f6b6457e09190a35050565b6000602082840312156100d057600080fd5b81516001600160a01b03811681146100e757600080fd5b9392505050565b610bac806100fd6000396000f3fe6080604052600436106100a05760003560e01c80638da5cb5b116100645780638da5cb5b146101905780639073a6da146101b8578063ac9f8083146101d8578063e086e5ec146101f8578063f2fde38b1461020d578063f4f3b2001461022d57600080fd5b80636b58222e146100ac578063715018a6146100ec57806373b2e80e146101035780637723bafb146101435780638cacf7171461017d57600080fd5b366100a757005b600080fd5b3480156100b857600080fd5b506100cc6100c73660046109dc565b61024d565b604080519384526020840192909252908201526060015b60405180910390f35b3480156100f857600080fd5b50610101610315565b005b34801561010f57600080fd5b5061013361011e3660046109dc565b60016020526000908152604090205460ff1681565b60405190151581526020016100e3565b34801561014f57600080fd5b5061013361015e3660046109dc565b6001600160a01b031660009081526001602052604090205460ff161590565b61013361018b366004610a14565b610329565b34801561019c57600080fd5b506000546040516001600160a01b0390911681526020016100e3565b3480156101c457600080fd5b506101016101d3366004610ac5565b610477565b3480156101e457600080fd5b506101016101f3366004610b08565b610604565b34801561020457600080fd5b506101016107af565b34801561021957600080fd5b506101016102283660046109dc565b6107f4565b34801561023957600080fd5b506101016102483660046109dc565b61082f565b6001600160a01b03811660009081526001602052604081205481908190819060ff1661027a576000610285565b683635c9adc5dea000005b6001600160a01b03861660009081526001602052604081205468ffffffffffffffffff9290921692509060ff166102c557683635c9adc5dea000006102c8565b60005b6001600160a01b03871660009081526001602052604081205468ffffffffffffffffff9290921692509060ff16610300576000610303565b60015b92979196505060ff9091169350915050565b61031d610943565b6103276000610970565b565b3360009081526001602052604081205460ff16156103805760405162461bcd60e51b815260206004820152600f60248201526e105b1c9958591e4818db185a5b5959608a1b60448201526064015b60405180910390fd5b60008251116103c95760405162461bcd60e51b8152602060048201526015602482015274496e76616c696420726566657272616c20636f646560581b6044820152606401610377565b34662386f26fc10000146104175760405162461bcd60e51b8152602060048201526015602482015274086d8c2d2da40cccaca40d2e640605c6062408aa89605b1b6044820152606401610377565b33600081815260016020818152604092839020805460ff19169092179091559051683635c9adc5dea0000081527f650e45f04ef8a0c267b2f78d983913f69ae3a353b2b32de5429307522be0ab55910160405180910390a2506001919050565b61047f610943565b6040516370a0823160e01b81526001600160a01b03848116600483015283916000918316906370a0823190602401602060405180830381865afa1580156104ca573d6000803e3d6000fd5b505050506040513d601f19601f820116820180604052508101906104ee9190610b3b565b905080156105fd576040516323b872dd60e01b81526001600160a01b0386811660048301528481166024830152604482018390528316906323b872dd906064016020604051808303816000875af115801561054d573d6000803e3d6000fd5b505050506040513d601f19601f820116820180604052508101906105719190610b54565b6105af5760405162461bcd60e51b815260206004820152600f60248201526e151c985b9cd9995c8819985a5b1959608a1b6044820152606401610377565b836001600160a01b0316856001600160a01b03167fdba2b405dd6018329ff688a0535193c4d55479bb3602ddbb461723cf84111461836040516105f491815260200190565b60405180910390a35b5050505050565b61060c610943565b6040516370a0823160e01b81526001600160a01b03838116600483015282916000918316906370a0823190602401602060405180830381865afa158015610657573d6000803e3d6000fd5b505050506040513d601f19601f8201168201806040525081019061067b9190610b3b565b905080156107a957816001600160a01b03166323b872dd856106a56000546001600160a01b031690565b6040516001600160e01b031960e085901b1681526001600160a01b03928316600482015291166024820152604481018490526064016020604051808303816000875af11580156106f9573d6000803e3d6000fd5b505050506040513d601f19601f8201168201806040525081019061071d9190610b54565b61075b5760405162461bcd60e51b815260206004820152600f60248201526e151c985b9cd9995c8819985a5b1959608a1b6044820152606401610377565b826001600160a01b0316846001600160a01b03167fdba2b405dd6018329ff688a0535193c4d55479bb3602ddbb461723cf84111461836040516107a091815260200190565b60405180910390a35b50505050565b6107b7610943565b600080546040516001600160a01b03909116914780156108fc02929091818181858888f193505050501580156107f1573d6000803e3d6000fd5b50565b6107fc610943565b6001600160a01b03811661082657604051631e4fbdf760e01b815260006004820152602401610377565b6107f181610970565b610837610943565b6040516370a0823160e01b815230600482015281906000906001600160a01b038316906370a0823190602401602060405180830381865afa158015610880573d6000803e3d6000fd5b505050506040513d601f19601f820116820180604052508101906108a49190610b3b565b9050801561093e57816001600160a01b031663a9059cbb6108cd6000546001600160a01b031690565b6040516001600160e01b031960e084901b1681526001600160a01b039091166004820152602481018490526044016020604051808303816000875af115801561091a573d6000803e3d6000fd5b505050506040513d601f19601f820116820180604052508101906107a99190610b54565b505050565b6000546001600160a01b031633146103275760405163118cdaa760e01b8152336004820152602401610377565b600080546001600160a01b038381166001600160a01b0319831681178455604051919092169283917f8be0079c531659141344cd1fd0a4f28419497f9722a3daafe3b4186f6b6457e09190a35050565b80356001600160a01b03811681146109d757600080fd5b919050565b6000602082840312156109ee57600080fd5b6109f7826109c0565b9392505050565b634e487b7160e01b600052604160045260246000fd5b600060208284031215610a2657600080fd5b813567ffffffffffffffff80821115610a3e57600080fd5b818401915084601f830112610a5257600080fd5b813581811115610a6457610a646109fe565b604051601f8201601f19908116603f01168101908382118183101715610a8c57610a8c6109fe565b81604052828152876020848701011115610aa557600080fd5b826020860160208301376000928101602001929092525095945050505050565b600080600060608486031215610ada57600080fd5b610ae3846109c0565b9250610af1602085016109c0565b9150610aff604085016109c0565b90509250925092565b60008060408385031215610b1b57600080fd5b610b24836109c0565b9150610b32602084016109c0565b90509250929050565b600060208284031215610b4d57600080fd5b5051919050565b600060208284031215610b6657600080fd5b815180151581146109f757600080fdfea26469706673582212209f8b77702d7998f8b585de005fc944e825d0fc52415c7d7b1a7cb940066d5a1964736f6c63430008140033",
  "linkReferences": {},
  "deployedLinkReferences": {}
}